:04000000020049327F
:01000B0032C2
:0100130032BA
:01001B0032B2
:0100230032AA
:01002B0032A2
:01003300329A
:01003B003292
:0300430002010BAC
:1000A20078317600783276007833760008760078F8
:0A00B2003576007836760402004629
:0300460002067A35
:1000BC0075E20053E27F43E22975E30053E2BF533C
:1000CC00D1FB75D18043D1012243E10443E10243CA
:1000DC00E10143E18043D81FD2EAD2AF2275EE4052
:1000EC0075EF0175E48075E50175EB0875D4107535
:1000FC00D21275EC0075ED0175EA4075DC0222C078
:10010C0020C0E0C0F0C082C083C007C006C005C0DC
:10011C0004C003C002C001C000C0D075D000AED96D
:10012C005306307F00BE1014BF00117833860608CA
:10013C008607783374012EF6E43F08F620D90302C3
:10014C000614743F55D9FFFEBE000302060CBF0215
:10015C00028025BF200302058FBF21028008BF301B
:10016C0002802E02061275D30074FC55D24402F59F
:10017C00D27835760002061220DE030206127831A0
:10018C00A6DB7832760074F355D44408F5D4020615
:10019C0012AEDB7F00BE0805BF00028003020563C0
:1001AC00900107E0FE7F00900106E07C004FF5080F
:1001BC00EC4EF5097E007F008F0D900101E0F50AF1
:1001CC00900100E0FD5305607C00BD4005BC0002C1
:1001DC00800302027E750D01E50845097022E50ACF
:1001EC0024FB5003020567E50A75F003A49001FD9A
:1001FC00730205670205670205670205670205675A
:10020C007405B50A02803A7409B50A0280467490E6
:10021C00B50A4F900104E025E0FD900BBC939001D2
:10022C0000F07C000DBD00010CED24BCF582EC341B
:10023C000BF583E493FD900101F07E027F00020533
:10024C00679001007401F09001017460F07E027FF0
:10025C00000205679001027836E0F67E007F00020E
:10026C000567900100E4F0900101F07E027F00022E
:10027C000567900100E0FD5460600302055DE50A2E
:10028C0024F55003020557E50A75F003A490029D6E
:10029C00730205370203D302055702044E020557B9
:1002AC000203A20202BE0205570203AF0203CA02F6
:1002BC000567900103E0FDBD0102800ABD020280CA
:1002CC0014BD0372801E750F3C75100C7511807C6B
:1002DC00127D008065750F4E75100C7511807C2099
:1002EC007D008056900102E0700F750F6E75100C3A
:1002FC007511807C047D008041900102E0FBBB0104
:10030C000F750F9C75100C7511807C0E7D00802A6A
:10031C00900102E0FBBB020F750F8475100C751178
:10032C00807C187D008013750F7275100C75118010
:10033C007C127D0080047CFF7D00C3EC9508ED955C
:10034C000950048C088D09C3E5089408E50994004C
:10035C0040067C087D008004AC08AD098C068D0736
:10036C00850F268510278511288E298F2A9001004C
:10037C0075F000C007C006120B2CD006D007E5089C
:10038C00C39EF508E5099FF509EE250FF50FEF352E
:10039C0010F510020567900102E0FD8D087509004B
:1003AC00020567900100E50CF0C3E5089401E5092E
:1003BC00940050030205677E017F000205679001DF
:1003CC0002E0F50C020567900100E0541F703390B9
:1003DC000103E0FC7D00900102E0FB7A004205EA9B
:1003EC004204BD0116BC0013900C55E493FD30E59E
:1003FC00030205677EFF7F000205677EFF7F000218
:10040C000567900100E0FD53051F7C00BD022CBC6C
:10041C000029900104E0FDBD02028005BD81118020
:10042C000553D473800E74BC55D24402F5D28004AB
:10043C007EFF7F00783576000205677EFF7F000225
:10044C000567900100E0541F704D900103E0FC7DA6
:10045C0000900102E0FB7A004205EA4204BD013043
:10046C00BC002D900C55E493FD30E51DE5A220E772
:10047C00FB75A15575A1AA75A9C143870275A15534
:10048C0075A1AA75A9000205677EFF7F00020567AA
:10049C007EFF7F00020567900100E0FD53051F7C85
:1004AC0000BD0205BC00028002807A900103E0FCD2
:1004BC007D00900102E0FB7A004205EA4204ED4C1B
:1004CC00705D900105E0FC7D00900104E0FB7A007A
:1004DC004205EA4204BD0105BC00028034BD0205A0
:1004EC00BC00028018BD8105BC0002801ABD8229A7
:1004FC00BC002674BF55D44403F5D4805E747F557C
:10050C00D4440CF5D4805474BF55D24403F5D28036
:10051C004A747F55D2440CF5D27EFF7F00803C7E1E
:10052C00FF7F0080367EFF7F008030900100E4F07A
:10053C00900101F0C3E5089402E509940040067EA1
:10054C00027F008016AE08AF0980107EFF7F00800E
:10055C000A7EFF7F0080047EFF7F00BEFF0CBF0081
:10056C0009750AFF75DCCF020612C374089EE49F5E
:10057C0040088EDD75DCC002061275DD0075DCC02E
:10058C000206127405B50A02805A7406B50A69C3CC
:10059C00E5089408E509940040067E087F00800475
:1005AC00AE08AF09850F268510278511288E298F57
:1005BC002A90010075F000C007C006120B2CD00663
:1005CC00D007E508C39EF508E5099FF509EE250F50
:1005DC00F50FEF3510F5108EDDAEDC7F00630640B5
:1005EC008EDC8022E50D701EE5E35480FFE508FEED
:1005FC004FF5E375DC02800E75DD0075DC028006BC
:10060C0075DD0085DCDCC2D930D81D75DC0275D2F5
:10061C001275D41075E300C2DAC2D9C2D87831761B
:10062C0000750C007835760010DA028021E5DA309E
:10063C00E21FE5A220E7FB75A15575A1AA75A9C11A
:10064C0043870275A15575A1AA75A900800375D8B9
:10065C00FFD0D0D000D001D002D003D004D005D030
:10066C0006D007D083D082D0F0D0E0D020327F00EB
:10067C008F1AE4F51BF51CC0071208FED2B29000CD
:10068C0032120926D00720B21A900032C007120984
:10069C0026D00720B20DC2AF900064120926123882
:1006AC000080FEC0071200BC1200E91200D5D00772
:1006BC007592407593F2D29675DD0075D30090015A
:1006CC00407401F09001417460F07837760078380E
:1006DC007600750E01E50C60FC7B007831E670034A
:1006EC00020715C007C0E005A290008015A290017A
:1006FC0080853107E0A3A5D507FAD0E0D00753D405
:10070C00F378318603783176007A00C3EA9B400394
:10071C00020839EA2480F582E43400F583E0F5A080
:10072C000AEF704BA2A7E433FDA2A6E433F51AED51
:10073C006007E5A0543FFF80D2E51A6024A2A49282
:10074C0095A2A19294A2A092977837868275830085
:10075C00A296E433FDF07837067837E6547FF680BE
:10076C00AAA2A49295A2A19294A2A09297809C1F57
:10077C00E51A6076A2A09295A29692A0D297C29703
:10078C00A2A19295A29692A1D297C297A2A292955B
:10079C00A29692A2D297C297A2A39295A29692A346
:1007AC00D297C297A2A49295A29692A4D297C297DE
:1007BC00A2A59295A29692A5D297C297A2A692951F
:1007CC00A29692A6D297C297A2A79295A29692A70A
:1007DC00D297C29778378682758300E5A0F0783778
:1007EC00067837E6547FF6020717A2A09295D297A7
:1007FC00C297A2A19295D297C297A2A29295D29794
:10080C00C297A2A39295D297C297A2A49295D2977F
:10081C00C297A2A59295D297C297A2A69295D2976B
:10082C00C297A2A79295D297C2970207177835E67E
:10083C0060030206E178377938E6C397FD30E706A6
:10084C0074802DFC80028D048C05C374808DF06344
:10085C00F08095F05059C3ED648094BE40067B3E09
:10086C007C008006EDFB3395E0FC7839A6037D0017
:10087C00C3ED9B502B8D040C0CEC3395E0FAEC245F
:10088C0040FCEA3401FA78388682758300E0FE8CED
:10089C00828A83F07838067838E6547FF60D80D05B
:1008AC007835760174022BF5D353D2FC0206E1782D
:1008BC0033E6C3951BFD08E6951CFE783686037C53
:1008CC0000C3EB9DEC9E50147833861B08861C7875
:1008DC0035760175D30253D2FC0206E1E50E7003A6
:1008EC000206E1150E7835760175D30253D2FC025F
:0208FC0006E113
:100BBC000000FB090160000480E11C000002940E9F
:100BCC00A218BA120E0341006C007400650072008A
:100BDC00610018035500530042002D0042006C00C8
:100BEC006100730074006500720012033100320062
:100BFC0033003400350036003700380002030100A2
:100C0C0052455643000000000000000000000000A8
:100C1C0000000000000000000000000000000000C8
:100C2C000000000000000000000000000000B5B251
:100C3C001201000200000008FB090160000401021F
:100C4C0003010902200001010080E10904000002F7
:100C5C00FFFFFF000705810240000107050202406B
:100C6C000001040309041203310032003300340084
:100C7C003500360037003800180355005300420089
:100C8C002D0042006C00610073007400650072005E
:0E0C9C000E0341006C007400650072006100E0
:1008FE0075A15575A1AA74F855B94405F5B975A138
:10090E000022AE82AF83EE4F600D05A105A105A1B9
:10091E001EBEFF011F80EF22AE82AF83EE4F601529
:10092E009003E8C007C006120910D006D0071EBEFD
:10093E00FF011F80E72243C61022C29FD29EC29D96
:10094E00C2CDC2CC438780752111752204E4F523F4
:10095E00F52475260AF527F528F5298521828522A5
:10096E00838523F0E524120A44AC828C2575260A71
:10097E00E4F527F528F5298521828522838523F044
:10098E00E524120AC785822185832285F023F5246A
:10099E0074FB25255019AC21AD22AE23AF24740172
:1009AE002CF521E43DF522E43EF523E43FF52474D5
:1009BE000F55894420F58943C9A0AF21C3E49FF5A3
:1009CE008DD28ED299D29C2210980280FB8599826C
:1009DE002285829910990280FB22AE82AF831099F4
:1009EE000280FB8E998E828F832210980280FBAE3E
:1009FE00997F008E828F832243C62022C2C7D2C522
:100A0E00D2C475C2982210C00280FB85C182228595
:100A1E0082C110C10280FB22AF8275A15575A1AAB9
:100A2E00EF600543B101800353B1FE75A10075FF60
:100A3E0000228582FF22F9E52645274528452960B3
:100A4E00777800C308E52920E73BE52625E0F52663
:100A5E00E52733F527E52833F528E52933F529E58C
:100A6E00829526E5839527E5F09528E9952950D4BA
:100A7E00C3E52913F529E52813F528E52713F527EE
:100A8E00E52613F526E5829526FCE5839527FDE5FB
:100A9E00F09528FEE995294007F98EF08D838C821A
:100AAE00C3E52913F529E52813F528E52713F527BE
:100ABE00E52613F526D8CEE922FB7A20E4FCFDFECE
:100ACE00FFE5822582F582E58333F583E5F033F584
:100ADE00F0EB33FB4017DAE98042E5822582F5829E
:100AEE00E58333F583E5F033F5F0EB33FBEC33FCC4
:100AFE00ED33FDEE33FEEF33FFEC9526ED9527EE4D
:100B0E009528EF95294013EC9526FCED9527FDEEE3
:0E0B1E009528FEEF9529FF438201DABEEB22F7
:06007800E478FFF6D8FD5C
:100B2C00AD82AE83AFF08D2B8E2C8F2D85262E852E
:100B3C00272F852830A829A92A8803890418B8FFEB
:100B4C000119EB4C6025852E82852F838530F012A0
:100B5C000B9CFCA385822E85832F8D828E838FF038
:100B6C00EC120B81A3AD82AE8380CE852B82852CBB
:050B7C0083852DF0222D
:100056007900E94400601B7A00900CAA780075A02C
:1000660000E493F2A308B8000205A0D9F4DAF27509
:02007600A0FFE9
:100B810020F71130F6138883A88220F509F6A8838F
:0B0B91007583002280FEF280F5F02248
:10007E007800E84400600A790075A000E4F309D81E
:10008E00FC7800E84400600C7900900000E4F0A3D6
:04009E00D8FCD9FAB7
:0D004900758139120BB8E582600302004694
:100B9C0020F71430F6148883A88220F507E6A88382
:100BAC0075830022E280F7E49322E0227582002212
:00000001FF
